{
    "abi": [
        {
            "type": "constructor",
            "inputs": [],
            "stateMutability": "nonpayable"
        },
        {
            "type": "function",
            "name": "agentExists",
            "inputs": [
                {
                    "name": "agentId",
                    "type": "uint256",
                    "internalType": "uint256"
                }
            ],
            "outputs": [
                {
                    "name": "exists",
                    "type": "bool",
                    "internalType": "bool"
                }
            ],
            "stateMutability": "view"
        },
        {
            "type": "function",
            "name": "approve",
            "inputs": [
                {
                    "name": "to",
                    "type": "address",
                    "internalType": "address"
                },
                {
                    "name": "tokenId",
                    "type": "uint256",
                    "internalType": "uint256"
                }
            ],
            "outputs": [],
            "stateMutability": "nonpayable"
        },
        {
            "type": "function",
            "name": "balanceOf",
            "inputs": [
                {
                    "name": "owner",
                    "type": "address",
                    "internalType": "address"
                }
            ],
            "outputs": [
                {
                    "name": "",
                    "type": "uint256",
                    "internalType": "uint256"
                }
            ],
            "stateMutability": "view"
        },
        {
            "type": "function",
            "name": "getApproved",
            "inputs": [
                {
                    "name": "tokenId",
                    "type": "uint256",
                    "internalType": "uint256"
                }
            ],
            "outputs": [
                {
                    "name": "",
                    "type": "address",
                    "internalType": "address"
                }
            ],
            "stateMutability": "view"
        },
        {
            "type": "function",
            "name": "getMetadata",
            "inputs": [
                {
                    "name": "agentId",
                    "type": "uint256",
                    "internalType": "uint256"
                },
                {
                    "name": "key",
                    "type": "string",
                    "internalType": "string"
                }
            ],
            "outputs": [
                {
                    "name": "value",
                    "type": "bytes",
                    "internalType": "bytes"
                }
            ],
            "stateMutability": "view"
        },
        {
            "type": "function",
            "name": "isApprovedForAll",
            "inputs": [
                {
                    "name": "owner",
                    "type": "address",
                    "internalType": "address"
                },
                {
                    "name": "operator",
                    "type": "address",
                    "internalType": "address"
                }
            ],
            "outputs": [
                {
                    "name": "",
                    "type": "bool",
                    "internalType": "bool"
                }
            ],
            "stateMutability": "view"
        },
        {
            "type": "function",
            "name": "name",
            "inputs": [],
            "outputs": [
                {
                    "name": "",
                    "type": "string",
                    "internalType": "string"
                }
            ],
            "stateMutability": "view"
        },
        {
            "type": "function",
            "name": "ownerOf",
            "inputs": [
                {
                    "name": "tokenId",
                    "type": "uint256",
                    "internalType": "uint256"
                }
            ],
            "outputs": [
                {
                    "name": "",
                    "type": "address",
                    "internalType": "address"
                }
            ],
            "stateMutability": "view"
        },
        {
            "type": "function",
            "name": "register",
            "inputs": [],
            "outputs": [
                {
                    "name": "agentId",
                    "type": "uint256",
                    "internalType": "uint256"
                }
            ],
            "stateMutability": "nonpayable"
        },
        {
            "type": "function",
            "name": "register",
            "inputs": [
                {
                    "name": "tokenURI_",
                    "type": "string",
                    "internalType": "string"
                },
                {
                    "name": "metadata",
                    "type": "tuple[]",
                    "internalType": "struct IIdentityRegistry.MetadataEntry[]",
                    "components": [
                        {
                            "name": "key",
                            "type": "string",
                            "internalType": "string"
                        },
                        {
                            "name": "value",
                            "type": "bytes",
                            "internalType": "bytes"
                        }
                    ]
                }
            ],
            "outputs": [
                {
                    "name": "agentId",
                    "type": "uint256",
                    "internalType": "uint256"
                }
            ],
            "stateMutability": "nonpayable"
        },
        {
            "type": "function",
            "name": "register",
            "inputs": [
                {
                    "name": "tokenURI_",
                    "type": "string",
                    "internalType": "string"
                }
            ],
            "outputs": [
                {
                    "name": "agentId",
                    "type": "uint256",
                    "internalType": "uint256"
                }
            ],
            "stateMutability": "nonpayable"
        },
        {
            "type": "function",
            "name": "safeTransferFrom",
            "inputs": [
                {
                    "name": "from",
                    "type": "address",
                    "internalType": "address"
                },
                {
                    "name": "to",
                    "type": "address",
                    "internalType": "address"
                },
                {
                    "name": "tokenId",
                    "type": "uint256",
                    "internalType": "uint256"
                }
            ],
            "outputs": [],
            "stateMutability": "nonpayable"
        },
        {
            "type": "function",
            "name": "safeTransferFrom",
            "inputs": [
                {
                    "name": "from",
                    "type": "address",
                    "internalType": "address"
                },
                {
                    "name": "to",
                    "type": "address",
                    "internalType": "address"
                },
                {
                    "name": "tokenId",
                    "type": "uint256",
                    "internalType": "uint256"
                },
                {
                    "name": "data",
                    "type": "bytes",
                    "internalType": "bytes"
                }
            ],
            "outputs": [],
            "stateMutability": "nonpayable"
        },
        {
            "type": "function",
            "name": "setApprovalForAll",
            "inputs": [
                {
                    "name": "operator",
                    "type": "address",
                    "internalType": "address"
                },
                {
                    "name": "approved",
                    "type": "bool",
                    "internalType": "bool"
                }
            ],
            "outputs": [],
            "stateMutability": "nonpayable"
        },
        {
            "type": "function",
            "name": "setMetadata",
            "inputs": [
                {
                    "name": "agentId",
                    "type": "uint256",
                    "internalType": "uint256"
                },
                {
                    "name": "key",
                    "type": "string",
                    "internalType": "string"
                },
                {
                    "name": "value",
                    "type": "bytes",
                    "internalType": "bytes"
                }
            ],
            "outputs": [],
            "stateMutability": "nonpayable"
        },
        {
            "type": "function",
            "name": "supportsInterface",
            "inputs": [
                {
                    "name": "interfaceId",
                    "type": "bytes4",
                    "internalType": "bytes4"
                }
            ],
            "outputs": [
                {
                    "name": "",
                    "type": "bool",
                    "internalType": "bool"
                }
            ],
            "stateMutability": "view"
        },
        {
            "type": "function",
            "name": "symbol",
            "inputs": [],
            "outputs": [
                {
                    "name": "",
                    "type": "string",
                    "internalType": "string"
                }
            ],
            "stateMutability": "view"
        },
        {
            "type": "function",
            "name": "tokenURI",
            "inputs": [
                {
                    "name": "tokenId",
                    "type": "uint256",
                    "internalType": "uint256"
                }
            ],
            "outputs": [
                {
                    "name": "",
                    "type": "string",
                    "internalType": "string"
                }
            ],
            "stateMutability": "view"
        },
        {
            "type": "function",
            "name": "totalAgents",
            "inputs": [],
            "outputs": [
                {
                    "name": "count",
                    "type": "uint256",
                    "internalType": "uint256"
                }
            ],
            "stateMutability": "view"
        },
        {
            "type": "function",
            "name": "transferFrom",
            "inputs": [
                {
                    "name": "from",
                    "type": "address",
                    "internalType": "address"
                },
                {
                    "name": "to",
                    "type": "address",
                    "internalType": "address"
                },
                {
                    "name": "tokenId",
                    "type": "uint256",
                    "internalType": "uint256"
                }
            ],
            "outputs": [],
            "stateMutability": "nonpayable"
        },
        {
            "type": "event",
            "name": "Approval",
            "inputs": [
                {
                    "name": "owner",
                    "type": "address",
                    "indexed": true,
                    "internalType": "address"
                },
                {
                    "name": "approved",
                    "type": "address",
                    "indexed": true,
                    "internalType": "address"
                },
                {
                    "name": "tokenId",
                    "type": "uint256",
                    "indexed": true,
                    "internalType": "uint256"
                }
            ],
            "anonymous": false
        },
        {
            "type": "event",
            "name": "ApprovalForAll",
            "inputs": [
                {
                    "name": "owner",
                    "type": "address",
                    "indexed": true,
                    "internalType": "address"
                },
                {
                    "name": "operator",
                    "type": "address",
                    "indexed": true,
                    "internalType": "address"
                },
                {
                    "name": "approved",
                    "type": "bool",
                    "indexed": false,
                    "internalType": "bool"
                }
            ],
            "anonymous": false
        },
        {
            "type": "event",
            "name": "MetadataSet",
            "inputs": [
                {
                    "name": "agentId",
                    "type": "uint256",
                    "indexed": true,
                    "internalType": "uint256"
                },
                {
                    "name": "indexedKey",
                    "type": "string",
                    "indexed": true,
                    "internalType": "string"
                },
                {
                    "name": "key",
                    "type": "string",
                    "indexed": false,
                    "internalType": "string"
                },
                {
                    "name": "value",
                    "type": "bytes",
                    "indexed": false,
                    "internalType": "bytes"
                }
            ],
            "anonymous": false
        },
        {
            "type": "event",
            "name": "Registered",
            "inputs": [
                {
                    "name": "agentId",
                    "type": "uint256",
                    "indexed": true,
                    "internalType": "uint256"
                },
                {
                    "name": "tokenURI",
                    "type": "string",
                    "indexed": false,
                    "internalType": "string"
                },
                {
                    "name": "owner",
                    "type": "address",
                    "indexed": true,
                    "internalType": "address"
                }
            ],
            "anonymous": false
        },
        {
            "type": "event",
            "name": "Transfer",
            "inputs": [
                {
                    "name": "from",
                    "type": "address",
                    "indexed": true,
                    "internalType": "address"
                },
                {
                    "name": "to",
                    "type": "address",
                    "indexed": true,
                    "internalType": "address"
                },
                {
                    "name": "tokenId",
                    "type": "uint256",
                    "indexed": true,
                    "internalType": "uint256"
                }
            ],
            "anonymous": false
        }
    ],
    "bytecode": {
        "object": "0x6080346200032d576001600160401b03906040908082018381118282101762000317578252601881526020927f4552432d383030342054727573746c657373204167656e740000000000000000848301528251838101818110838211176200031757845260058152641051d1539560da1b85820152825190828211620003175760008054926001958685811c951680156200030c575b89861014620002f8578190601f95868111620002a5575b5089908683116001146200024157849262000235575b5050600019600383901b1c191690861b1781555b8151938411620002215784548581811c9116801562000216575b888210146200020257838111620001ba575b5086928411600114620001545783949596509262000148575b5050600019600383901b1c191690821b1781555b806007556008540160085551611ae49081620003338239f35b0151905038806200011b565b9190601f1984169685845280842093905b888210620001a2575050838596971062000188575b505050811b0181556200012f565b015160001960f88460031b161c191690553880806200017a565b80878596829496860151815501950193019062000165565b8582528782208480870160051c8201928a8810620001f8575b0160051c019086905b828110620001ec57505062000102565b838155018690620001dc565b92508192620001d3565b634e487b7160e01b82526022600452602482fd5b90607f1690620000f0565b634e487b7160e01b81526041600452602490fd5b015190503880620000c2565b8480528a85208994509190601f198416865b8d8282106200028e575050841162000274575b505050811b018155620000d6565b015160001960f88460031b161c1916905538808062000266565b8385015186558c9790950194938401930162000253565b9091508380528984208680850160051c8201928c8610620002ee575b918a91869594930160051c01915b828110620002df575050620000ac565b8681558594508a9101620002cf565b92508192620002c1565b634e487b7160e01b83526022600452602483fd5b94607f169462000095565b634e487b7160e01b600052604160045260246000fd5b600080fdfe608060408181526004918236101561001657600080fd5b600090813560e01c90816301ffc9a714610da15750806306fdde0314610cf9578063081812fc14610cda578063095ea7b314610b6c5780631aa3a00814610b3857806323b872dd14610b1357806342842e0e14610adf578063466648da1461090a5780636352211e146108da57806370a08231146108455780638ea42286146105b757806395d89b41146104e6578063a22cb46514610416578063b88d4fde14610388578063c505371214610349578063c87b56dd146102c6578063cb4799f2146101ed578063de99f157146101af578063e985e9c51461015d5763f2c298be1461010057600080fd5b3461015a57602036600319011261015a5782359067ffffffffffffffff821161015a575061014861013960209461014e93369101610eb3565b610141611566565b3691610f51565b336116a9565b90600160075551908152f35b80fd5b5090346101ab57806003193601126101ab5760ff8160209361017d610e4d565b610185610e68565b6001600160a01b0391821683526005875283832091168252855220549151911615158152f35b5080fd5b503461015a57602036600319011261015a57506101e460209235600052600260205260018060a01b0360406000205416151590565b90519015158152f35b5082903461015a578260031936011261015a5781359060243567ffffffffffffffff81116101ab576102229036908501610eb3565b60008481526002602052604090205491949093916001600160a01b03161561028c5761028861026f876102766102648989848a8a8152600960205220916115f4565b825193848092611034565b0383610f13565b51918291602083526020830190610e0d565b0390f35b606490602087519162461bcd60e51b835282015260146024820152731059d95b9d08191bd95cc81b9bdd08195e1a5cdd60621b6044820152fd5b50913461034557602036600319011261034557356000818152600260205260409020546102889361032093929091610308906001600160a01b03161515610f88565b81526006602052610327828220835194858092611034565b0384610f13565b815161033281610ee1565b5251918291602083526020830190610e0d565b8280fd5b5090346101ab57816003193601126101ab57600854600019810192908311610375576020838351908152f35b634e487b7160e01b815260118452602490fd5b5082346101ab5760803660031901126101ab576103a3610e4d565b906103ac610e68565b916044356064359367ffffffffffffffff85116104125736602386011215610412576103e761040a9486602461040f98369301359101610f51565b926103fa6103f584336111e1565b611108565b6104058383836112a9565b6114db565b6111bd565b80f35b8580fd5b50919034610345578060031936011261034557610431610e4d565b90602435918215158093036104e2576001600160a01b0316923384146104a05750338452600560205280842083855260205280842060ff1981541660ff8416179055519081527f17307eab39ab6107e8899845ad3d59bd9653f200f220920489ca2b5937696c3160203392a380f35b6020606492519162461bcd60e51b8352820152601960248201527f4552433732313a20617070726f766520746f2063616c6c6572000000000000006044820152fd5b8480fd5b5090346101ab57816003193601126101ab5780519082600180549161050a83610ffa565b8086529282811690811561058f5750600114610533575b50505061027682610288940383610f13565b94508085527fb10e2d527612073b26eecdfd717e6a320cf44b4afac2b0732d9fcbe2b7fa0cf65b828610610577575050506102768260206102889582010194610521565b8054602087870181019190915290950194810161055a565b61028897508693506020925061027694915060ff191682840152151560051b82010194610521565b5091903461034557806003193601126103455767ffffffffffffffff82358181116104e2576105e99036908501610eb3565b94909360249586359584871161084157366023880112156108415786830135918583116104e257888801978936918560051b0101116104e2576106329161014891610141611566565b9581610648575b60208787600160075551908152f35b835b8281106106575750610639565b61067761066e610668838686611a23565b80611a5b565b905015156115bc565b610682818484611a23565b61069160209182810190611a5b565b8a8852600983526106b28a89206106ac610668878a8a611a23565b906115f4565b9189821161082f5785838389938f958f97906106d16106d79254610ffa565b8561160d565b8c908d601f84116001146107a2579261077194928192600080516020611a8f833981519152999a9b9592610797575b50508160011b916000199060031b1c19161790555b8b61075361072d6106688b8888611a23565b91909361074a8c610742610668828c8c611a23565b9a9099611a23565b90810190611a5b565b939092828b5193849384378201908152039020975194859485611682565b0390a360001981146107855760010161064a565b634e487b7160e01b8552601184528885fd5b013590503880610706565b91601f1984168584528a8420935b81811061080457509161077195939185600080516020611a8f8339815191529a9b9c9694106107ea575b505050600190811b01905561071b565b0135600019600384901b60f8161c191690553880806107da565b9599509397509550935087600181928787013581550195019201938f9591938f97938b958d976107b0565b634e487b7160e01b8952604188528c89fd5b8380fd5b5082346101ab5760203660031901126101ab576001600160a01b03610868610e4d565b169081156108855760208480858581526003845220549051908152f35b608490602085519162461bcd60e51b8352820152602960248201527f4552433732313a2061646472657373207a65726f206973206e6f7420612076616044820152683634b21037bbb732b960b91b6064820152fd5b503461015a57602036600319011261015a57506108f960209235610fd4565b90516001600160a01b039091168152f35b5091346103455760603660031901126103455780359067ffffffffffffffff90602435828111610412576109419036908301610eb3565b929091604435828111610adb5761095b9036908301610eb3565b92909161096887336111e1565b15610aa7576109788615156115bc565b8689526020906009825261098f898b2088886115f4565b928511610a9457506109ab846109a58454610ffa565b8461160d565b8890601f8511600114610a195750918391600080516020611a8f833981519152969594610a08948b91610a0e575b508360011b906000198560031b1c19161790555b875185858237808681018b8152039020975194859485611682565b0390a380f35b9050820135386109d9565b90601f198516838b52828b20928b905b828210610a7c57505091859391600080516020611a8f833981519152989796610a08969410610a62575b5050600183811b0190556109ed565b830135600019600386901b60f8161c191690553880610a53565b80600185968294968a01358155019501930190610a29565b634e487b7160e01b8a5260419052602489fd5b606490602089519162461bcd60e51b8352820152600e60248201526d139bdd08185d5d1a1bdc9a5e995960921b6044820152fd5b8780fd5b5090346101ab5761040a61040f91610af636610e7e565b91925192610b0384610ee1565b8684526103fa6103f584336111e1565b503461015a5761040f610b2536610e7e565b91610b336103f584336111e1565b6112a9565b5090346101ab57816003193601126101ab5761014e602092610b58611566565b825190610b6482610ee1565b8152336116a9565b509134610345578160031936011261034557610b86610e4d565b6024359290916001600160a01b0391908280610ba187610fd4565b16941693808514610c8d57803314908115610c6e575b5015610c0657848652602052842080546001600160a01b03191683179055610bde83610fd4565b167f8c5be1e5ebec7d5bd14f71427d1e84f3dd0314c0f7b2291e5b200ac8c7c3b9258480a480f35b6020608492519162461bcd60e51b8352820152603d60248201527f4552433732313a20617070726f76652063616c6c6572206973206e6f7420746f60448201527f6b656e206f776e6572206f7220617070726f76656420666f7220616c6c0000006064820152fd5b90508652600560205281862033875260205260ff828720541638610bb7565b506020608492519162461bcd60e51b8352820152602160248201527f4552433732313a20617070726f76616c20746f2063757272656e74206f776e656044820152603960f91b6064820152fd5b503461015a57602036600319011261015a57506108f9602092356110ca565b5090346101ab57816003193601126101ab57805190828054610d1a81610ffa565b8085529160019180831690811561058f5750600114610d455750505061027682610288940383610f13565b80809650527f290decd9548b62a8d60345a988386fc84ba6bc95484008f6362f93160ef3e5635b828610610d89575050506102768260206102889582010194610521565b80546020878701810191909152909501948101610d6c565b90508334610345576020366003190112610345573563ffffffff60e01b811680910361034557602092506380ac58cd60e01b8114908115610dfc575b8115610deb575b5015158152f35b6301ffc9a760e01b14905083610de4565b635b5e139f60e01b81149150610ddd565b919082519283825260005b848110610e39575050826000602080949584010152601f8019910116010190565b602081830181015184830182015201610e18565b600435906001600160a01b0382168203610e6357565b600080fd5b602435906001600160a01b0382168203610e6357565b6060906003190112610e63576001600160a01b03906004358281168103610e6357916024359081168103610e63579060443590565b9181601f84011215610e635782359167ffffffffffffffff8311610e635760208381860195010111610e6357565b6020810190811067ffffffffffffffff821117610efd57604052565b634e487b7160e01b600052604160045260246000fd5b90601f8019910116810190811067ffffffffffffffff821117610efd57604052565b67ffffffffffffffff8111610efd57601f01601f191660200190565b929192610f5d82610f35565b91610f6b6040519384610f13565b829481845281830111610e63578281602093846000960137010152565b15610f8f57565b60405162461bcd60e51b815260206004820152601860248201527f4552433732313a20696e76616c696420746f6b656e20494400000000000000006044820152606490fd5b6000908152600260205260409020546001600160a01b0316610ff7811515610f88565b90565b90600182811c9216801561102a575b602083101461101457565b634e487b7160e01b600052602260045260246000fd5b91607f1691611009565b906000929180549161104583610ffa565b9182825260019384811690816000146110a75750600114611067575b50505050565b90919394506000526020928360002092846000945b838610611093575050505001019038808080611061565b80548587018301529401938590820161107c565b9294505050602093945060ff191683830152151560051b01019038808080611061565b6000818152600260205260409020546110ed906001600160a01b03161515610f88565b6000908152600460205260409020546001600160a01b031690565b1561110f57565b60405162461bcd60e51b815260206004820152602d60248201527f4552433732313a2063616c6c6572206973206e6f7420746f6b656e206f776e6560448201526c1c881bdc88185c1c1c9bdd9959609a1b6064820152608490fd5b60809060208152603260208201527f4552433732313a207472616e7366657220746f206e6f6e20455243373231526560408201527131b2b4bb32b91034b6b83632b6b2b73a32b960711b60608201520190565b156111c457565b60405162461bcd60e51b8152806111dd6004820161116a565b0390fd5b906001600160a01b0380806111f584610fd4565b16931691838314938415611228575b508315611212575b50505090565b61121e919293506110ca565b161438808061120c565b909350600052600560205260406000208260005260205260ff604060002054169238611204565b1561125657565b60405162461bcd60e51b815260206004820152602560248201527f4552433732313a207472616e736665722066726f6d20696e636f72726563742060448201526437bbb732b960d91b6064820152608490fd5b906112d1916112b784610fd4565b6001600160a01b039391841692849290918316841461124f565b1691821561136e57816112ee916112e786610fd4565b161461124f565b7fddf252ad1be2c89b69c2b068fc378daa952ba7f163c4a11628f55a4df523b3ef60008481526004602052604081206bffffffffffffffffffffffff60a01b9081815416905583825260036020526040822060001981540190558482526040822060018154019055858252600260205284604083209182541617905580a4565b60405162461bcd60e51b8152602060048201526024808201527f4552433732313a207472616e7366657220746f20746865207a65726f206164646044820152637265737360e01b6064820152608490fd5b9192600092909190803b156114d15761140d946040518092630a85bd0160e11b9485835233600484015287602484015260448301526080606483015281878160209a8b966084830190610e0d565b03926001600160a01b03165af1849181611491575b50611480575050503d600014611478573d61143c81610f35565b9061144a6040519283610f13565b81528091833d92013e5b805191826114755760405162461bcd60e51b8152806111dd6004820161116a565b01fd5b506060611454565b6001600160e01b0319161492509050565b9091508581813d83116114ca575b6114a98183610f13565b810103126104e257516001600160e01b0319811681036104e2579038611422565b503d61149f565b5050915050600190565b9293600093909291803b1561155b579484916115359660405180948193630a85bd0160e11b9788845233600485015260018060a01b0380921660248501526044840152608060648401528260209b8c976084830190610e0d565b0393165af18491816114915750611480575050503d600014611478573d61143c81610f35565b505050915050600190565b600260075414611577576002600755565b60405162461bcd60e51b815260206004820152601f60248201527f5265656e7472616e637947756172643a207265656e7472616e742063616c6c006044820152606490fd5b156115c357565b60405162461bcd60e51b8152602060048201526009602482015268456d707479206b657960b81b6044820152606490fd5b6020919283604051948593843782019081520301902090565b90601f811161161b57505050565b600091825260208220906020601f850160051c83019410611657575b601f0160051c01915b82811061164c57505050565b818155600101611640565b9092508290611637565b908060209392818452848401376000828201840152601f01601f1916010190565b929061169b90610ff79593604086526040860191611661565b926020818503910152611661565b9190916008549260019182850160085560408051936116c785610ee1565b60008086526001600160a01b038416959091908615611994576000898152600260205260409020546117919161040a9161170d906001600160a01b031615155b156119d7565b60008b815260026020526040902054611730906001600160a01b03161515611707565b8885528a60209760038952878720868154019055818752600289528787208b6bffffffffffffffffffffffff60a01b825416179055818b887fddf252ad1be2c89b69c2b068fc378daa952ba7f163c4a11628f55a4df523b3ef8180a46113bf565b84516117d5575b50505181815285927fca52e62c367d81bb2e328eb795f7c7ba24afb478408a26c0e201d155c449bc4a9282916117d091830190610e0d565b0390a3565b929096959493916117fb87600052600260205260018060a01b0360406000205416151590565b1561193a57868852600682528088209383519067ffffffffffffffff821161192657889961183783611831899a9b9c9954610ffa565b8a61160d565b8490601f841160011461189e5792807fca52e62c367d81bb2e328eb795f7c7ba24afb478408a26c0e201d155c449bc4a98999381936117d0979693611893575b501b916000199060031b1c19161790555b929450819350611798565b890151925038611877565b979290601f198216848a52868a20995b81811061190e57509882916117d0969594937fca52e62c367d81bb2e328eb795f7c7ba24afb478408a26c0e201d155c449bc4a9a9b106118f5575b5050811b019055611888565b88015160001960f88460031b161c1916905538806118e9565b828901518b55998401998d99509187019187016118ae565b634e487b7160e01b8a52604160045260248afd5b60849250519062461bcd60e51b82526004820152602e60248201527f45524337323155524953746f726167653a2055524920736574206f66206e6f6e60448201526d32bc34b9ba32b73a103a37b5b2b760911b6064820152fd5b6064845162461bcd60e51b815260206004820152602060248201527f4552433732313a206d696e7420746f20746865207a65726f20616464726573736044820152fd5b156119de57565b60405162461bcd60e51b815260206004820152601c60248201527f4552433732313a20746f6b656e20616c7265616479206d696e746564000000006044820152606490fd5b9190811015611a455760051b81013590603e1981360301821215610e63570190565b634e487b7160e01b600052603260045260246000fd5b903590601e1981360301821215610e63570180359067ffffffffffffffff8211610e6357602001918136038313610e635756fe2c149ed548c6d2993cd73efe187df6eccabe4538091b33adbd25fafdb8a1468ba264697066735822122035fdf0b66ced5f83cf91f19fdf045058ac0a6fefb279f3ea6c7bdfc2d79e0ed364736f6c63430008130033",
        "linkReferences": {}
    },
    "methodIdentifiers": {
        "agentExists(uint256)": "de99f157",
        "approve(address,uint256)": "095ea7b3",
        "balanceOf(address)": "70a08231",
        "getApproved(uint256)": "081812fc",
        "getMetadata(uint256,string)": "cb4799f2",
        "isApprovedForAll(address,address)": "e985e9c5",
        "name()": "06fdde03",
        "ownerOf(uint256)": "6352211e",
        "register()": "1aa3a008",
        "register(string)": "f2c298be",
        "register(string,(string,bytes)[])": "8ea42286",
        "safeTransferFrom(address,address,uint256)": "42842e0e",
        "safeTransferFrom(address,address,uint256,bytes)": "b88d4fde",
        "setApprovalForAll(address,bool)": "a22cb465",
        "setMetadata(uint256,string,bytes)": "466648da",
        "supportsInterface(bytes4)": "01ffc9a7",
        "symbol()": "95d89b41",
        "tokenURI(uint256)": "c87b56dd",
        "totalAgents()": "c5053712",
        "transferFrom(address,address,uint256)": "23b872dd"
    },
    "id": 32
}